:020000040800F2
:1000000000500020491A0008191A00081B1A00089D
:100010001D1A00081F1A0008211A0008000000001D
:10002000000000000000000000000000231A00088B
:10003000251A000800000000271A0008291A0008E5
:10004000911A0008911A0008911A0008911A0008E4
:10005000911A0008911A0008911A0008911A0008D4
:10006000911A0008911A0008911A00082D1A000828
:10007000911A0008911A0008911A0008911A0008B4
:10008000911A0008911A0008911A0008911A0008A4
:10009000391A0008911A0008911A0008911A0008EC
:1000A000911A0008911A0008911A0008911A000884
:1000B000911A0008911A0008911A0008911A000874
:1000C000911A0008911A0008911A0008911A000864
:1000D000911A0008911A0008911A0008911A000854
:1000E000911A0008911A0008911A000800000000F7
:1000F0000000000000000000000000000000000000
:0C01000000000000000000005FF808F1A3
:1001100010B5054C237833B9044B13B10448AFF341
:1001200000800123237010BD480B00200000000058
:1001300064CC000808B5034B1BB103490348AFF377
:10014000008008BD000000004C0B002064CC0008BB
:10015000034613F8012B002AFBD1181A0138704707
:1001600081F0004102E000BF83F0004330B54FEA68
:1001700041044FEA430594EA050F08BF90EA020FD5
:100180001FBF54EA000C55EA020C7FEA645C7FEA68
:10019000655C00F0E2804FEA5454D4EB5555B8BF8B
:1001A0006D420CDD2C4480EA020281EA030382EAFC
:1001B000000083EA010180EA020281EA0303362D8E
:1001C00088BF30BD11F0004F4FEA01314FF4801C61
:1001D0004CEA113102D0404261EB410113F0004F73
:1001E0004FEA03334CEA133302D0524263EB43032A
:1001F00094EA050F00F0A780A4F10104D5F1200EC8
:100200000DDB02FA0EFC22FA05F2801841F1000122
:1002100003FA0EF2801843FA05F359410EE0A5F1F6
:1002200020050EF1200E012A03FA0EFC28BF4CF027
:10023000020C43FA05F3C01851EBE37101F00045DD
:1002400007D54FF0000EDCF1000C7EEB00006EEBEA
:100250000101B1F5801F1BD3B1F5001F0CD3490874
:100260005FEA30004FEA3C0C04F101044FEA4452CB
:1002700012F5800F80F09A80BCF1004F08BF5FEA52
:10028000500C50F1000041EB045141EA050130BD32
:100290005FEA4C0C404141EB0101013C28BFB1F544
:1002A000801FE9D291F0000F04BF01460020B1FA8F
:1002B00081F308BF2033A3F10B03B3F120020CDA62
:1002C0000C3208DD02F1140CC2F10C0201FA0CF040
:1002D00021FA02F10CE002F11402D8BFC2F1200CA5
:1002E00001FA02F120FA0CFCDCBF41EA0C0190405B
:1002F000E41AA2BF01EB0451294330BD6FEA0404A4
:100300001F3C1CDA0C340EDC04F11404C4F120028E
:1003100020FA04F001FA02F340EA030021FA04F3A0
:1003200045EA030130BDC4F10C04C4F1200220FAF7
:1003300002F001FA04F340EA0300294630BD21FA35
:1003400004F0294630BD94F0000F83F4801306BFFB
:1003500081F480110134013D4EE77FEA645C18BFEF
:100360007FEA655C29D094EA050F08BF90EA020F86
:1003700005D054EA000C04BF1946104630BD91EA7E
:10038000030F1EBF0021002030BD5FEA545C05D181
:100390004000494128BF41F0004130BD14F58004C0
:1003A0003CBF01F5801130BD01F0004545F0FE4134
:1003B00041F470014FF0000030BD7FEA645C1ABF69
:1003C000194610467FEA655C1CBF0B46024650EAA0
:1003D000013406BF52EA033591EA030F41F40021CC
:1003E00030BD00BF90F0000F04BF0021704730B552
:1003F0004FF4806404F132044FF000054FF0000127
:1004000050E700BF90F0000F04BF0021704730B5E7
:100410004FF4806404F1320410F0004548BF4042BC
:100420004FF000013EE700BF42004FEAE2014FEA11
:1004300031014FEA02701FBF12F07F4393F07F4FEC
:1004400081F06051704732F07F4208BF704793F0EF
:100450007F4F04BF41F40021704730B54FF4607402
:1004600001F0004521F000411CE700BF50EA010205
:1004700008BF704730B54FF000050AE050EA0102AE
:1004800008BF704730B511F0004502D5404261EB1E
:1004900041014FF4806404F132045FEA915C3FF45F
:1004A000D8AE4FF003025FEADC0C18BF03325FEAFC
:1004B000DC0C18BF033202EBDC02C2F1200300FAAD
:1004C00003FC20FA02F001FA03FE40EA0E0021FAD2
:1004D00002F11444BDE600BF70B54FF0FF0C4CF4C0
:1004E000E06C1CEA11541DBF1CEA135594EA0C0F72
:1004F00095EA0C0F00F0DEF82C4481EA030621EAAD
:100500004C5123EA4C5350EA013518BF52EA0335E7
:1005100041F4801143F4801338D0A0FB02CE4FF099
:100520000005E1FB02E506F00042E0FB03E54FF0C9
:100530000006E1FB03569CF0000F18BF4EF0010EC1
:10054000A4F1FF04B6F5007F64F5407404D25FEABD
:100550004E0E6D4146EB060642EAC62141EA555170
:100560004FEAC52040EA5E504FEACE2EB4F1FD0CB2
:1005700088BFBCF5E06F1ED8BEF1004F08BF5FEA30
:10058000500E50F1000041EB045170BD06F00046E2
:1005900046EA010140EA020081EA0301B4EB5C048F
:1005A000C2BFD4EB0C0541EA045170BD41F4801187
:1005B0004FF0000E013C00F3AB8014F1360FDEBFAC
:1005C000002001F0004170BDC4F10004203C35DA88
:1005D0000C341BDC04F11404C4F1200500FA05F30B
:1005E00020FA04F001FA05F240EA020001F00042AC
:1005F00021F0004110EBD37021FA04F642EB060122
:100600005EEA430E08BF20EAD37070BDC4F10C044B
:10061000C4F1200500FA04F320FA05F001FA04F20F
:1006200040EA020001F0004110EBD37041F10001FB
:100630005EEA430E08BF20EAD37070BDC4F1200506
:1006400000FA05F24EEA020E20FA04F301FA05F26E
:1006500043EA020321FA04F001F0004121FA04F216
:1006600020EA020000EBD3705EEA430E08BF20EAE6
:10067000D37070BD94F0000F0FD101F00046400020
:1006800041EB010111F4801F08BF013CF7D041EAA2
:10069000060195F0000F18BF704703F000465200A6
:1006A00043EB030313F4801F08BF013DF7D043EA77
:1006B0000603704794EA0C0F0CEA135518BF95EA2D
:1006C0000C0F0CD050EA410618BF52EA4306D1D1B4
:1006D00081EA030101F000414FF0000070BD50EAD3
:1006E000410606BF1046194652EA430619D094EA5D
:1006F0000C0F02D150EA013613D195EA0C0F05D147
:1007000052EA03361CBF104619460AD181EA03019A
:1007100001F0004141F0FE4141F470014FF0000052
:1007200070BD41F0FE4141F4780170BD70B54FF0ED
:10073000FF0C4CF4E06C1CEA11541DBF1CEA13556D
:1007400094EA0C0F95EA0C0F00F0A7F8A4EB05044F
:1007500081EA030E52EA03354FEA013100F0888046
:100760004FEA03334FF0805545EA131343EA12630F
:100770004FEA022245EA111545EA10654FEA0026C4
:100780000EF000419D4208BF964244F1FD0404F57D
:10079000407402D25B084FEA3202B61A65EB0305D9
:1007A0005B084FEA32024FF480104FF4002CB6EB96
:1007B000020E75EB030E22BFB61A754640EA0C0016
:1007C0005B084FEA3202B6EB020E75EB030E22BF56
:1007D000B61A754640EA5C005B084FEA3202B6EB97
:1007E000020E75EB030E22BFB61A754640EA9C0056
:1007F0005B084FEA3202B6EB020E75EB030E22BF26
:10080000B61A754640EADC0055EA060E18D04FEAE3
:10081000051545EA16754FEA06164FEAC30343EA83
:1008200052734FEAC2025FEA1C1CC0D111F4801F50
:100830000BD141EA00014FF000004FF0004CB6E749
:1008400011F4801F04BF01430020B4F1FD0C88BFE8
:10085000BCF5E06F3FF6AFAEB5EB030C04BFB6EBF3
:10086000020C5FEA500C50F1000041EB045170BDE6
:100870000EF0004E4EEA113114EB5C04C2BFD4EB13
:100880000C0541EA045170BD41F480114FF0000E97
:10089000013C90E645EA060E8DE60CEA135594EA13
:1008A0000C0F08BF95EA0C0F3FF43BAF94EA0C0F16
:1008B0000AD150EA01347FF434AF95EA0C0F7FF48B
:1008C00025AF104619462CE795EA0C0F06D152EADF
:1008D00003353FF4FDAE1046194622E750EA4106C3
:1008E00018BF52EA43067FF4C5AE50EA41047FF4D4
:1008F0000DAF52EA43057FF4EBAE12E74FF0FF3C39
:1009000006E000BF4FF0010C02E000BF4FF0010C09
:100910004DF804CD4FEA410C7FEA6C5C4FEA430C82
:1009200018BF7FEA6C5C1BD001B050EA410C0CBFD1
:1009300052EA430C91EA030F02BF90EA020F002033
:10094000704710F1000F91EA030F58BF994208BF9A
:1009500090422CBFD8176FEAE37040F00100704757
:100960004FEA410C7FEA6C5C02D150EA013C07D1AE
:100970004FEA430C7FEA6C5CD6D152EA033CD3D0F9
:100980005DF8040B704700BF8446104662468C46F3
:100990001946634600E000BF01B5FFF7B7FF002826
:1009A00048BF10F1000F01BD4DF808EDFFF7F4FF4F
:1009B0000CBF012000205DF808FB00BF4DF808EDDA
:1009C000FFF7EAFF34BF012000205DF808FB00BFFD
:1009D0004DF808EDFFF7E0FF94BF012000205DF81F
:1009E00008FB00BF4DF808EDFFF7CEFF94BF0120D4
:1009F00000205DF808FB00BF4DF808EDFFF7C4FFCD
:100A000034BF012000205DF808FB00BF4FEA410C15
:100A10007FEA6C5C02D150EA013C0AD14FEA430CF8
:100A20007FEA6C5C02D152EA033C02D14FF0000035
:100A300070474FF0010070474FEA410212F5001273
:100A400015D211D56FF47873B3EB625212D94FEA15
:100A5000C12343F0004343EA505311F0004F23FAFF
:100A600002F018BF404270474FF00000704750EA54
:100A7000013005D111F0004008BF6FF00040704711
:100A80004FF00000704700BF4FEA4102B2F1E0436F
:100A900024BFB3F5001CDCF1FE5C0DD901F0004C65
:100AA0004FEAC0024CEA5070B2F1004F40EB8300B5
:100AB00008BF20F00100704711F0804F21D113F1E1
:100AC0003872BCBF01F00040704741F480114FEA1A
:100AD0005252C2F11802C2F1200C10FA0CF320FAA3
:100AE00002F018BF40F001004FEAC1234FEAD323C0
:100AF00003FA0CFC40EA0C0023FA02F34FEA43032A
:100B0000CCE77FEA625307D150EA01331EBF4FF0B2
:100B1000FE4040F44000704701F0004040F0FE40CD
:100B200040F40000704700BF80F0004002E000BFCA
:100B300081F0004142001FBF5FEA410392EA030FC8
:100B40007FEA226C7FEA236C6AD04FEA1262D2EB12
:100B50001363C1BFD218414048404140B8BF5B4217
:100B6000192B88BF704710F0004F40F4000020F0B0
:100B70007F4018BF404211F0004F41F4000121F0C6
:100B80007F4118BF494292EA030F3FD0A2F1010210
:100B900041FA03FC10EB0C00C3F1200301FA03F14E
:100BA00000F0004302D5494260EB4000B0F5000F71
:100BB00013D3B0F1807F06D340084FEA310102F130
:100BC0000102FE2A51D2B1F1004F40EBC25008BFE2
:100BD00020F0010040EA03007047490040EB0000AC
:100BE000013A28BFB0F5000FEDD2B0FA80FCACF1AD
:100BF000080CB2EB0C0200FA0CF0AABF00EBC250DA
:100C000052421843BCBFD0401843704792F0000FC7
:100C100081F4000106BF80F400000132013BB5E71A
:100C20004FEA41037FEA226C18BF7FEA236C21D090
:100C300092EA030F04D092F0000F08BF08467047F5
:100C400090EA010F1CBF0020704712F07F4F04D1C3
:100C5000400028BF40F00040704712F100723CBFD6
:100C600000F50000704700F0004343F0FE4040F400
:100C7000000070477FEA226216BF08467FEA2363BE
:100C80000146420206BF5FEA412390EA010F40F4A9
:100C9000800070474FF0000304E000BF10F00043F5
:100CA00048BF40425FEA000C08BF704743F09643DC
:100CB00001464FF000001CE050EA010208BF7047F7
:100CC0004FF000030AE000BF50EA010208BF70477E
:100CD00011F0004302D5404261EB41015FEA010C93
:100CE00002BF84460146002043F0B64308BFA3F18B
:100CF0008053A3F50003BCFA8CF2083AA3EBC2536D
:100D000010DB01FA02FC634400FA02FCC2F120028B
:100D1000BCF1004F20FA02F243EB020008BF20F0C2
:100D20000100704702F1200201FA02FCC2F1200228
:100D300050EA4C0021FA02F243EB020008BF20EA1D
:100D4000DC7070474FF0FF0C1CEAD0521EBF1CEA4B
:100D5000D15392EA0C0F93EA0C0F6FD01A4480EA39
:100D6000010C400218BF5FEA41211ED04FF0006322
:100D700043EA501043EA5111A0FB01310CF000404E
:100D8000B1F5000F3EBF490041EAD3715B0040EA74
:100D9000010062F17F02FD2A1DD8B3F1004F40EB44
:100DA000C25008BF20F00100704790F0000F0CF017
:100DB000004C08BF49024CEA502040EA51207F3ADB
:100DC000C2BFD2F1FF0340EAC250704740F40000B6
:100DD0004FF00003013A5DDC12F1190FDCBF00F0A7
:100DE00000407047C2F10002410021FA02F1C2F155
:100DF000200200FA02FC5FEA310040F1000053EAF1
:100E00004C0308BF20EADC70704792F0000F00F03E
:100E1000004C02BF400010F4000F013AF9D040EA44
:100E20000C0093F0000F01F0004C02BF490011F4D8
:100E3000000F013BF9D041EA0C018FE70CEAD153D6
:100E400092EA0C0F18BF93EA0C0F0AD030F0004C56
:100E500018BF31F0004CD8D180EA010000F000400A
:100E6000704790F0000F17BF90F0004F084691F0C8
:100E7000000F91F0004F14D092EA0C0F01D1420202
:100E80000FD193EA0C0F03D14B0218BF084608D1CB
:100E900080EA010000F0004040F0FE4040F4000015
:100EA000704740F0FE4040F4400070474FF0FF0CA8
:100EB0001CEAD0521EBF1CEAD15392EA0C0F93EAEF
:100EC0000C0F69D0A2EB030280EA010C49024FEA41
:100ED000402037D04FF0805343EA111143EA1013FA
:100EE0000CF000408B4238BF5B0042F17D024FF4B2
:100EF000000C8B4224BF5B1A40EA0C00B3EB510F8D
:100F000024BFA3EB510340EA5C00B3EB910F24BF75
:100F1000A3EB910340EA9C00B3EBD10F24BFA3EBFA
:100F2000D10340EADC001B0118BF5FEA1C1CE0D1C2
:100F3000FD2A3FF650AF8B4240EBC25008BF20F075
:100F4000010070470CF0004C4CEA50207F32C2BFC9
:100F5000D2F1FF0340EAC250704740F400004FF066
:100F60000003013A37E792F0000F00F0004C02BF97
:100F7000400010F4000F013AF9D040EA0C0093F061
:100F8000000F01F0004C02BF490011F4000F013BBB
:100F9000F9D041EA0C0195E70CEAD15392EA0C0F23
:100FA00008D142027FF47DAF93EA0C0F7FF470AF5B
:100FB000084676E793EA0C0F04D14B023FF44CAF9E
:100FC00008466EE730F0004C18BF31F0004CCAD133
:100FD00030F000427FF45CAF31F000437FF43CAF6F
:100FE0005FE700BF4FF0FF3C06E000BF4FF0010C91
:100FF00002E000BF4FF0010C4DF804CD4FEA400273
:101000004FEA41037FEA226C18BF7FEA236C11D0BC
:1010100001B052EA530C18BF90EA010F58BFB2EB6F
:10102000030088BFC81738BF6FEAE17018BF40F0EF
:10103000010070477FEA226C02D15FEA402C05D1A3
:101040007FEA236CE4D15FEA412CE1D05DF8040B28
:10105000704700BF844608466146FFE70FB5FFF7BB
:10106000C9FF002848BF10F1000F0FBD4DF808ED73
:10107000FFF7F4FF0CBF012000205DF808FB00BF64
:101080004DF808EDFFF7EAFF34BF012000205DF8BE
:1010900008FB00BF4DF808EDFFF7E0FF94BF01200B
:1010A00000205DF808FB00BF4DF808EDFFF7D2FF08
:1010B00094BF012000205DF808FB00BF4DF808ED4B
:1010C000FFF7C8FF34BF012000205DF808FB00BF18
:1010D0004FEA4002B2F1FE4F0FD34FF09E03B3EB45
:1010E00012620DD94FEA002343F0004310F0004F85
:1010F00023FA02F018BF404270474FF000007047DB
:1011000012F1610F01D1420205D110F0004008BF79
:101110006FF0004070474FF00000704753B94AB974
:10112000002908BF00281CBF4FF0FF314FF0FF30EF
:1011300000F06EB9ADF1080C6DE904CE00F006F8D0
:10114000DDF804E0DDE9022304B070472DE9F04743
:10115000089E0D4604468E46002B40F083808A424E
:10116000174647D9B2FA82F34BB1C3F1200105FA11
:1011700003FE20FA01F19F4041EA0E0E9C404FEA27
:101180001748BEFBF8FC1FFA87F908FB1CE20CFBB2
:1011900009F0210C41EA024290420AD9BA180CF136
:1011A000FF3180F01881904240F21581ACF1020CC1
:1011B0003A44121AB2FBF8F008FB102200FB09F1C6
:1011C000A4B244EA0244A14209D93C1900F1FF3219
:1011D00080F00381A14240F2008102383C44641A4D
:1011E000002140EA0C401EB10022DC40C6E900426A
:1011F000BDE8F08702B9FFDEB2FA82F3002B4FD1CF
:101200008D1A01214FEA124E1FFA82F8B5FBFEFC3F
:101210000EFB1C5508FB0CF0220C42EA0545A842C7
:1012200007D97D190CF1FF3202D2A84200F2E98001
:1012300094462D1AB5FBFEF00EFB105508FB00F886
:10124000A4B244EA0544A04507D93C1900F1FF3295
:1012500002D2A04500F2D9801046A4EB080440EA6F
:101260000C40C0E78B4208D9002E00F0B18000216D
:10127000C6E900050846BDE8F087B3FA83F1002906
:101280004BD1AB4202D3824200F2B980841A65EBA3
:10129000030301209E46002EAAD0C6E9004EA7E710
:1012A0009F40C3F12002D1404FEA174EB1FBFEF040
:1012B0001FFA87F80EFB101124FA02F29D4000FB82
:1012C00008FC2A43150C45EA0145AC4504FA03F431
:1012D00009D97D1900F1FF3180F08F80AC4540F2D3
:1012E0008C8002383D44A5EB0C05B5FBFEF10EFBEE
:1012F000115C01FB08F995B245EA0C45A94507D9EF
:101300007D1901F1FF3274D2A94572D902393D44E9
:10131000A5EB090541EA004178E7C1F120078B40C0
:1013200022FA07FC4CEA030C25FA07F44FEA1C4E9C
:10133000B4FBFEF91FFA8CF80EFB194420FA07F3F0
:1013400009FB08FA8D401D432B0C43EA0444A245D7
:1013500002FA01F200FA01F309D91CEB040409F1C5
:10136000FF3048D2A24546D9A9F102096444A4EB52
:101370000A04B4FBFEF00EFB104400FB08FAADB209
:1013800045EA0444A24508D91CEB040400F1FF35EA
:101390002DD2A2452BD90238644440EA0940A0FB73
:1013A0000289A4EB0A044C45C6464D4619D316D013
:1013B0005EB1B3EB0E0264EB050404FA07F722FA00
:1013C00001F31F43CC40C6E900740021BDE8F0875B
:1013D000314630460CE78C46EBE61046FFE64345C7
:1013E000E6D2B8EB020E69EB0C050138E0E72846BF
:1013F000D3E711468CE78146B9E7084673E708460C
:1014000049E7ACF1020C3D4413E702383C4424E7C1
:10141000704700BF10B594B0102200210DA805F050
:10142000B1FE142200210DEB020005F0ABFE1022EC
:10143000002101A805F0A6FE02244FF4803301220A
:101440000021CDE90A23CDE911434FF4E0130AA8A6
:101450000C910E92139302F045F908B172B6FEE7B3
:101460000F23CDE905344FF480630790CDE90830B0
:10147000214605A802F00CFB08B172B6FEE7122364
:1014800001934FF40043CDE9033001A802F0BCFB07
:1014900008B172B6FEE714B010BD000080B5AF4CC5
:1014A0008CB000F01BFBFFF7B5FF1022002108A84D
:1014B00005F068FEA369002243F01003A361A3694D
:1014C0004FF4604103F010030293029BA369A44808
:1014D00043F02003A361A369012603F020030393D3
:1014E000039BA369022743F00403A361A3694FF49C
:1014F000604803F004030493049BA369002543F0B0
:101500000803A361A369DFF8909203F00803059331
:10151000059B00F0F1FF00220321924800F0ECFF50
:10152000002241F2C401904800F0E6FF01224FF48E
:1015300080618C4800F0E0FF1123894808A9CDE9BB
:101540000883CDE90A6700F0FBFE40F203438548BB
:1015500008A9CDE90836CDE90A5700F0F1FE41F2BD
:10156000C403814808A9CDE90836CDE90A5700F03F
:10157000E7FE4FF401437B4808A9CDE908350A95F9
:1015800000F0DEFE3823784808A9CDE908350A9531
:1015900000F0D6FE63692A463343636163692946D6
:1015A00033400B200193019B00F078FD0B2000F0ED
:1015B000A7FD4FF4E1336D48C0E900930C23C0E967
:1015C0000255C0E905350561C56102F0CBFD08B1E2
:1015D00072B6FEE7664C674B062523604FF48073B6
:1015E000A3604FF46023E3614FF40063CDE908008A
:1015F0000A902075204626736360256100F04EFC3A
:1016000008B172B6FEE74FF004084FF00709204614
:1016100008A9CDE90886CDF8289000F0D1FA08B1E4
:1016200072B6FEE70526204608A9CDE9086700F056
:10163000C7FA08B172B6FEE70323204608A9089549
:10164000099300F0BDFA08B172B6FEE7204608A97A
:10165000CDE9089800F0B4FA08B172B6FEE70823A5
:10166000204608A9CDE9083600F0AAFA08B172B6FA
:10167000FEE70923204608A9CDE9083500F0A0FAC5
:10168000034608B172B6FEE74FF482723A483B4E09
:10169000C0E90233C0E90062C0E904332022C0E996
:1016A000083383624FF400770A23C0E90672C362ED
:1016B00002F096FB044608B172B6FEE705F064FA44
:1016C0002F4D3048304BC0E90244C0E900534FF47D
:1016D0008043C0E90644C0E90434046201F03CF8E8
:1016E00008B172B6FEE71022002108A805F04AFDF5
:1016F00048F69F42254C26490023C4E900124FF6C4
:10170000FF722046CDE90633C4E90323A360A36139
:1017100002F0F6FB08B172B6FEE74FF480532046A4
:1017200008A9089302F022FC08B172B6FEE7CDE9E1
:10173000060006A9204602F0ADFC08B172B6FEE72D
:101740000B4C204600F028FC0028FAD10622114953
:10175000074800F0EFFA04F09FF9FEE7001002409E
:101760000010014000080140000C01404011002021
:10177000CC10002000240140D80F00200038004089
:101780000058004078100020A08601003010002092
:1017900000080040901400200044004072B6FEE7AC
:1017A0000E4B82B09A6942F001029A619A6902F086
:1017B00001020092009ADA6942F08052DA61DB6934
:1017C000074A03F080530193019B536823F0E063C1
:1017D00043F00073536002B0704700BF0010024036
:1017E00000000140102230B5054689B00DEB020023
:1017F000002105F0C7FC2A68244B9A4243D103F527
:101800006C439A69032442F400729A619A692048F1
:1018100002F400720192019A9A6904A942F004024A
:101820009A619A6902F004020292029A9A6942F05D
:1018300008029A619B6903F008030393039BF0235A
:10184000CDE9043400F07CFD124804A9CDE904443C
:1018500000F076FD0023104C104A8021C4E90023DB
:101860004FF480724FF48060C4E903122022C4E96F
:1018700005022046A360E36100F066FC08B1FFF7B3
:101880008DFF2C62656209B030BD00BF00240140AD
:1018900000080140000C0140FC100020080002403C
:1018A00010B5044686B01022002102A805F06AFC9B
:1018B0002268114B9A421DD1104C4FF44062A3692B
:1018C0000F4843F00803A361A36902A903F00803CA
:1018D0000093009B1223CDE902230323059300F01C
:1018E0002FFDE36943F48003E361E36903F48003BC
:1018F0000193019B06B010BD00580040001002404B
:10190000000C014010B5044686B01022002102A848
:1019100005F038FC2268174B9A4228D103F5EC33C6
:10192000DA69154842F48042DA61DA6902A902F400
:1019300080420092009A9A6942F008029A619B697B
:101940004FF4204203F008030193019B0223CDE9E9
:1019500002230323059300F0F3FC4FF4804100239E
:101960000548CDE9021302A9049300F0E9FC06B092
:1019700010BD00BF00380040000C01400268084B59
:1019800082B09A420AD103F50233DA6942F00402C6
:10199000DA61DB6903F004030193019B02B0704735
:1019A0000008004010B5044686B01022002102A8AD
:1019B00005F0E8FB2268164B9A4226D103F5E63380
:1019C000DA69144842F40032DA61DA6902A902F4F1
:1019D00000320092009A9A6942F004029A619B696F
:1019E000042203F004030193019B0223CDE90223A7
:1019F0000323059300F0A4FC082100230548CDE94A
:101A0000021302A9049300F09BFC06B010BD00BFB6
:101A10000044004000080140FEE7FEE7FEE7FEE765
:101A2000FEE770477047704700F06AB8014800F061
:101A3000F5BB00BFFC100020014801F06BB800BFEF
:101A4000201A0020704700000C480D490D4A002361
:101A500002E0D458C4500433C4188C42F9D30A4A63
:101A60000A4C002301E013600432A242FBD3FFF7CB
:101A7000E9FF05F03BFBFFF711FD70470000002078
:101A8000480B0020E4F20008480B00201C1D002039
:101A9000FEE7000038B50E4B054618784FF47A7310
:101AA000B3FBF0F30B4A1068B0FBF3F000F036FB29
:101AB000044658B90F2D09D8024629464FF0FF3089
:101AC00000F0ECFA2046044B1D6038BD0120FCE715
:101AD000040000200000002008000020074A08B58C
:101AE0001368032043F01003136000F0C5FA0020D0
:101AF000FFF7D0FFFFF754FE002008BD0020024092
:101B0000034A044B11681B780B441360704700BFF5
:101B10008411002004000020014B1868704700BFAA
:101B20008411002038B50446FFF7F6FF0546631C14
:101B30001EBF044B1B78E418FFF7EEFF431BA342C4
:101B4000FAD338BD040000207047436A10B59A6A82
:101B500012F0500F1BD19A6A42F400729A621A680E
:101B6000926802F46022B2F5602F0CD11A7B52B950
:101B70009A6A22F480729A629A6AD2045EBF9A6A62
:101B800042F001029A621846FFF7DEFF10BD1B6AA1
:101B9000BDE810401B6B1847704708B5406AFFF757
:101BA000FBFF08BD7047406A08B5836A43F04003F5
:101BB0008362C36A43F00403C362FFF7F3FF08BD07
:101BC000002373B5019390F824300446012B6CD0A8
:101BD000012380F824304D680268062D086805EB63
:101BE000850322D81F26556B053B9E4025EA060536
:101BF00000FA03F32B43536309288B6800EB40057D
:101C00004FF0070129D9D6681E3DA94026EA0101F7
:101C1000AB400B43D360A0F11003012B25D900206A
:101C2000002384F8243002B070BD0C2D4FF01F0546
:101C300009D8166B233B9D4026EA050500FA03F3FD
:101C40002B431363D8E7D66A413B9D4026EA05053E
:101C500000FA03F32B43D362CEE71069A94020EAD0
:101C60000101AB400B431361D9E7114B9A4216D1E6
:101C700093681B02D3D49368102843F40003936045
:101C8000CDD10C4B0C4A1B68B3FBF2F20A23534331
:101C90000193019B002BC2D0019B013BF8E7A36A93
:101CA000012043F02003A362BAE70220BBE700BF94
:101CB000002401400000002040420F00002337B5FF
:101CC0000193036804469A68D20702D5002003B046
:101CD00030BD9A6842F001029A60144B144A1B68A6
:101CE000B3FBF2F30193019BE3B9FFF715FF054640
:101CF00023689B68DB07E9D4FFF70EFF401B02282F
:101D0000F6D923689B6813F00103F1D1A26A012080
:101D100042F01002A262E26A84F8243042F001022A
:101D2000E262D4E7019B013BDCE700BF000000203A
:101D300040420F002DE9F041404B904602680446B6
:101D40009A420F4602D03E498A4203D15B6813F49F
:101D5000702F6ED194F82430012B6CD001232046D3
:101D600084F82430FFF7AAFF064600285DD1A56A53
:101D70002168334B25F4706525F0010545F4807525
:101D80009942A56204D12D4A536813F4702F3ED1B5
:101D9000A36A23F48013A3624B685A0505D5A36A8E
:101DA00023F4405343F48053A362A36A206A13F4DC
:101DB000805318BFE36A3A4618BF23F00603E36274
:101DC000002384F824301F4B4C3183621E4BC362C6
:101DD0001E4B03636FF0020341F84C3C51F8443C46
:101DE00043F4807341F8443C434600F0DBF9236838
:101DF0009A6802F46022B2F5602F9A680CBF42F430
:101E0000A00242F480129A603046BDE8F081A36AD5
:101E100043F48013A36253685B0541BFA06A20F4BA
:101E2000405040F48050A062BFE7002384F8243083
:101E3000EAE70126E8E70226E6E700BF00240140C2
:101E4000002801404B1B00089B1B0008A71B000833
:101E500038B5036804469A68D10701D4002038BD1C
:101E60009A6822F001029A60FFF756FE0546236841
:101E70009B68DB07F2D5FFF74FFE401B0228F6D91F
:101E800023689B68DA07F2D5A36A012043F01003A8
:101E9000A362E36A43F00103E362E0E7F8B50446B6
:101EA00000286ED0836A23B9C36280F82430FFF71C
:101EB00099FC2046FFF7CCFFA36A13F0100362D110
:101EC000002860D1A26AE569616822F4885222F094
:101ED000020242F002022943A568A262227BB5F504
:101EE000807F41EA420137D0012D14BF00274FF413
:101EF0008077267D012E06D182BBA269013A47EA8E
:101F0000423646F400672268B5F5807F566826F4AD
:101F1000694646EA0706566097681D4E06EA0706B8
:101F200046EA0106966001D0012D02D12369013BEA
:101F30001B05D56A25F470052B43D3629268154BB7
:101F40001340994213D10023E362A36A23F00303F1
:101F500043F00103A362F8BD2F46CAE7A26A42F02C
:101F60002002A262E26A42F00102E262CBE7A36AC7
:101F700023F0120343F01003A362E36A43F001036A
:101F8000E3620120E7E7A36A43F01003A362F8E7E6
:101F9000FDF7E1FFFE0E1FFF002373B5019390F8DC
:101FA00024300446012B62D0012380F82430FFF74F
:101FB0004FFF0546002832D1A36A022023F488533C
:101FC00023F0020343F00203A3622A4B1E6801F0D0
:101FD00093FEB6FBF0F676000196019B1BBB2046F4
:101FE000FFF76CFE2268936843F008039360FFF7E5
:101FF00093FD064623689A68110718D49A6842F040
:1020000004029A60FFF788FD064623689B685B0719
:1020100023D4A36A23F0030343F00103A362002344
:1020200084F8243016E0019B013B0193D5E7FFF7CC
:1020300073FD801B0A28DDD923689B681807D9D552
:10204000A36A012523F0120343F01003A3620023C7
:1020500084F82430284602B070BDFFF75DFD801B78
:102060000A28D2D923689B685A07CED5E8E702250B
:10207000F0E700BF0000002007490302CA6803F42C
:10208000E06322F4E0621204120C134343F0BF63D6
:1020900043F40033CB60704700ED00E0164B30B5E1
:1020A000DC68C4F30224C4F10703251D042B28BFF8
:1020B0000423062D4FF0FF3598BF002405FA03F3E3
:1020C00088BF033C21EA0303A34005FA04F422EA93
:1020D0000402002843EA0203ACBF00F16040074A53
:1020E0004FEA0313DBB2ABBF00F5614000F00F0015
:1020F00080F80033135430BD00ED00E014ED00E033
:10210000002808DB0123420900F01F0003FA00F059
:10211000014B43F82200704700E100E00138B0F1C4
:10212000807F0AD2F021064B064A586082F82310BD
:102130000020072298601A6070470120704700BF96
:1021400010E000E000ED00E010B520B314220168BB
:10215000124B0B44B3FBF2F39B000364104B0A6871
:10216000C363D0E901342343C46822F47F5223437C
:10217000046922F0300223434469234384692343E2
:10218000C469234313430B604FF48072002302841D
:102190008363184610BD0120FCE700BFF8FFFDBFB8
:1021A00000000240F0B590F82040012C34D001240A
:1021B00090F8215080F82040A5424FF000064FF0E3
:1021C000020427D180F8214004688663266826F03F
:1021D00001062660D0E90F67BD4075606360436803
:1021E000102BC36A0BBFA260A160E160E2604BB13B
:1021F000236843F00E0300202360236843F00103AB
:102200002360F0BD236823F004032360236843F0B8
:102210000A03F0E780F820600220F2E770B404259A
:10222000C66B026C3468036895402542196832D049
:102230004D0730D51A6896065EBF1A6822F0040270
:102240001A603D4A934219D01432934218D0143286
:10225000934217D01432934217D01432934217D0BE
:10226000143293420CBF4FF480034FF08063334A23
:102270005360C36A002B5CD070BC18470423F6E798
:102280004023F4E74FF48063F1E74FF48043EEE737
:102290004FF48023EBE702259540254235D08D078A
:1022A00033D51A68940606D41A6822F00A021A6016
:1022B000012280F82120204A934219D014329342FF
:1022C00018D01432934217D01432934217D01432DC
:1022D000934217D0143293420CBF4FF400134FF0C7
:1022E0000073164A5360002380F82030836AC1E7E8
:1022F0000223F6E72023F4E74FF40073F1E74FF4ED
:102300000053EEE74FF40033EBE7082595402542F4
:102310000FD009070DD5196821F00E0119600123AE
:1023200003FA02F2726083634FF480730384036BD9
:10233000A0E770BC704700BF0800024000000240E8
:102340002DE9F74F00221646644BDFF8A0C1DFF8F5
:10235000A0E10D6835FA06F402D103B0BDE8F08FB4
:102360004FF0010808FA06F805EA080438EA0505FE
:102370007CD14D68032D07D8013D022D00F28880E5
:10238000DFE805F0969BA100122D00F099806FD830
:10239000112D00F08F80FF2C98BF82464FF00F095F
:1023A00088BF00F1040A4FEA8605DAF8008088BF8A
:1023B000203D09FA05FB28EA0B0802FA05F548EA70
:1023C0000505CAF80050D1F804A01AF0805F4DD07E
:1023D000434F26F00308BD6908F1804845F0010528
:1023E000BD61BD6908F5803805F00105019506F06D
:1023F000030B019D4FEA8B0BD8F8085009FA0BF933
:1024000025EA0909374DA84261D005F58065A84243
:102410005FD005F58065A8425DD005F58065A842CE
:102420000CBF0325042505FA0BF545EA0905C8F894
:1024300008501D681AF4803F14BF2543A5431D6052
:102440005D681AF4003F14BF2543A5435D609D6895
:102450001AF4801F14BF2543A5439D60DD681AF45C
:10246000001F14BF2C4325EA0404DC60013670E72A
:102470001D4FBD420CD017D8DFF878904D4507D0DE
:1024800009F570294D4503D0A9F580194D4582D134
:102490008A68D2B1012A08BFC0F810804FF0080244
:1024A00018BFC0F8148076E76545F1D07545EEE7B2
:1024B000CA6870E7CA6804326DE7CA6808326AE71A
:1024C000CA680C3267E7002265E7042263E700254B
:1024D000A9E70125A7E70225A5E700BF0004014001
:1024E00000100240000801400000221000003110DE
:1024F00000003210000012100AB101617047090497
:10250000FBE7016800224B6913F4806310D06FF47D
:1025100080634B612023026380F83D3080F83E20C9
:10252000036C80F83C2043F00403036401207047EF
:10253000184670472DE9F04104460F461646984666
:102540002568686927EA000080B2B8B16B695A054E
:1025500016D52B68202243F400732B606FF4806340
:102560006B610023236384F83D2084F83E30226CA5
:1025700042F004020120226484F83C30BDE8F0817E
:10258000731CDED0FFF7C8FAA0EB0800B04201D8F8
:10259000002ED5D100232022236384F83D2084F827
:1025A0003E30226C42F02002E4E770B504460D464E
:1025B000164623685B695B0701D5002070BD204685
:1025C000FFF79FFFA8B96A1CF3D0FFF7A5FA801B9D
:1025D000A84201D8002DECD100232022236384F8E7
:1025E0003D2084F83E30226C84F83C3042F02002DA
:1025F00022640120E2E72DE9F84606460F4691469F
:102600001D464FEA114A3368BAF1010F0CBF5C69ED
:102610009C6927EA0404A4B2B4FA84F46409A145CD
:1026200001D0002017E06A1CEED0FFF775FA089B76
:10263000C01AA84201D8002DE5D100232022012094
:10264000336386F83D2086F83E30326C86F83C30A5
:1026500042F020023264BDE8F88670B504460D46AB
:10266000164623685B691B0601D5002070BD204615
:10267000FFF747FFA8B96A1CF3D0FFF74DFA801B9C
:10268000A84201D8002DECD100232022236384F836
:102690003D2084F83E30226C84F83C3042F0200229
:1026A00022640120E2E700002DE9F04315460268AC
:1026B0009946136885B043F480731360DDE90C78A4
:1026C0000E463B4600224FF00111CDF80080044633
:1026D000FFF791FF236838B11B68DB0502D54FF483
:1026E0000073236403200AE006F0FE061E613A46EA
:1026F000434620461749FFF71DFF18B1012005B0DA
:10270000BDE8F083236803905A69394603929B69B8
:10271000424603932046039BFFF79FFF40B1236C83
:10272000042B01BF2268136843F400731360E5E7CC
:10273000B9F1010F236802D1EDB21D61DFE72A0A6A
:102740001A61394642462046FFF787FF0028E6D146
:102750002368F1E70200010070B5044608B90120C2
:1027600070BD90F83D3003F0FF021BB980F83C20AB
:10277000FFF796F8242384F83D3023681A6822F086
:1027800001021A601A6842F400421A601A6822F4C0
:1027900000421A6001F018FA3F4A6368934294BFFE
:1027A0003E4A3F4A90428CBF00220122002AD6D1E5
:1027B0003C4E2268B0FBF6F65168013821F03F012B
:1027C000314351603449156A8B4281BF4FF4967191
:1027D00071434FF47A76B1FBF6F125F03F0594BFD3
:1027E000711C013129431162D1692B4D21F44F41F4
:1027F000AB4221F0FF0132D85B00B0FBF3F0431C89
:1028000040F6FC70034242D0C3F30B030B43D36189
:102810001168D4E9073021F0C00103430B43136072
:102820009168D4E9030321F40341034321F0FF013C
:102830000B439360D168D4E9053021F0FF010343D5
:102840000B43D3601368002043F00103136020237F
:10285000206484F83D30206384F83E0080E7A5685A
:1028600055B903EB4303B0FBF3F30133C3F30B039D
:102870007BB143F40043C9E719256B43B0FBF3F385
:102880000133C3F30B0323B143F44043BEE70423F6
:10289000BCE70123BAE700BFA08601007F841E00C9
:1028A000FF083D0040420F002DE9F74304469946DA
:1028B0000F4690460C9EFFF72FF994F83D300546E1
:1028C000202B03D0022003B0BDE8F0830090192331
:1028D000012220463A49FFF78EFE0028F2D194F8F3
:1028E0003C30012BEED00123206884F83C30036893
:1028F0004246D90758BF036839465CBF43F001031D
:102900000360036823F400630360212384F83D30EF
:10291000402384F83E30002323640A9B20466362F0
:10292000BDF82C30CDE900656385638D2385254B8B
:10293000E3624B46FFF7B8FE00282AD00120C2E729
:10294000FFF78BFE40B1236C042B01BF2268136894
:1029500043F400731360F1E7636A27681A4612F8BC
:10296000011B39616262628D218D013A92B26285EA
:102970007A69481E80B2520720850AD548B15A7834
:1029800002333A616362638D0239013B9BB2218558
:102990006385238D2A4631462046002BD0D1FFF790
:1029A00004FE0028CFD12268136843F4007313603B
:1029B000202384F83C0084F83D3084F83E0082E710
:1029C000020010000000FFFFF0B5044687B010B30E
:1029D00090F8A93203F0FF021BB980F8A82204F096
:1029E00057FA032325466E4684F8A93255F8100B92
:1029F00001F0F6FB0FCD0FC62B68271D336026466E
:102A000097E80E0056F8100B01F0DAFB054620B1EE
:102A1000022384F8A93201254CE00146206801F028
:102A2000E9FB29464FF0010E28250846D4F804C0DA
:102A3000CAB2944501F101011BD80023282519468B
:102A4000D8B2844503F1010320D8EC4635460FCDBA
:102A5000ACE80F002B68CCF8003097E80E00206837
:102A600001F0CAFB01230546E8B1022284F8A9223D
:102A7000D1E705FB0243C3E90E0083F829E083F8A0
:102A80002820DA8683F82B001864D1E705FB004282
:102A9000C2E95E1182F8691182F8680182F86B114F
:102AA000C2F88011CCE784F82400206884F8A932A9
:102AB00001F060FE284607B0F0BD38B590F8A832A6
:102AC0000446012B10D0012580F8A852006801F0BF
:102AD0007EFB2946204604F007FB206801F048FEF3
:102AE000002084F8A80238BD0220FCE710B590F859
:102AF000A8220446012A0BD0012280F8241080F875
:102B0000A822006801F02EFE002084F8A80210BD63
:102B10000220FCE72DE9F04F044685B0006801F083
:102B20002BFE000409D5DFF88C99DFF88C8920682A
:102B3000B0F844301D0400F1C180206801F01CFE93
:102B400041050FD522682046B2F8443023F4806353
:102B50001B041B0CA2F8443004F0D5F900212046D8
:102B6000FFF7C4FF206801F007FE410408D5226882
:102B7000B2F8443023F480431B041B0CA2F8443009
:102B8000206801F0F9FD820408D52268B2F84430CB
:102B900023F400531B041B0CA2F84430206801F0FE
:102BA000EBFDC3041CD522682046B2F8403023F068
:102BB00004031B041B0CA2F84030B2F8403023F091
:102BC00008031B041B0CA2F8403004F0BFF9226874
:102BD000B2F8443023F480531B041B0CA2F8443099
:102BE000206801F0C9FD070546D5684623680646FA
:102BF00019461A4603F1200532F8047B954226F85F
:102C0000027BF9D1B3F8402092B242F00102A3F85E
:102C10004020B3F8402022F001021204120CA3F865
:102C20004020B3F844205605FBD5B3F8442022F4E5
:102C300080621204120CA3F8442030F8022B21F811
:102C4000042B8D42F9D1B3F84020204692B242F0D5
:102C50000802A3F84020B3F8442022F400621204D2
:102C6000120CA3F84420B3F8402092B242F00402C0
:102C7000A3F8402004F05AF9206801F07DFD820598
:102C80000BD522682046B2F8443023F400731B04AD
:102C90001B0CA2F8443004F032F9206801F06CFDFE
:102CA000C30508D52268B2F8443023F480731B04AE
:102CB0001B0CA2F8443005B0BDE8F08FB0F84460BA
:102CC000B1B216F00F0640F0BD8011F010012DD109
:102CD00003889BB203EA090343F400430380B0F87E
:102CE000503094F828209BB203EBC20300EB430062
:102CF000B0F80434E26BC3F3090363641344E36381
:102D0000204604F0F4F894F82430002B3FF40FAF81
:102D1000226C002A7FF40BAF94F82430216843F032
:102D20008003A1F84C3084F8242000E70588ABB27A
:102D300015F4006521D0B0F8503094F868219BB2AA
:102D400003EBC20300EB4303B3F80C34B4F86E2179
:102D5000C3F30903C4F8843104F52C7102F0B0F810
:102D600022682046138823F070031B051B0D43F0D7
:102D70008003138004F0ACF8D9E61A047FF5D7AECF
:102D8000038823F070031B051B0D43F080030380B1
:102D9000B0F8503094F868219BB203EBC20300EB0B
:102DA0004303B3F80C34C3F30903C4F884318BB183
:102DB000D4F87C1171B1B4F86E2102F081F8D4F826
:102DC0007C31D4F88421294613442046C4F87C3150
:102DD00004F084F821680B881B053FF5A8AEB1F814
:102DE0005030D4F878519BB201F20C40CDB9C25AA0
:102DF00022F4F8421204120CC252C25A92B242F4A5
:102E00000042C2520B8823F4804323F070031B045A
:102E10001B0C83F4405343F4004343F080030B80C6
:102E200085E63E2D06D86A08EF0748BF01329202B8
:102E300092B2E6E76A09EE0608BF02F1FF3248EAFD
:102E40008222F5E730F826301D049FB240F1F88069
:102E5000282130F8263001FB064123F070031B05C2
:102E60001B0D43F0800320F8263091F8743100F5F3
:102E70008065B3B9B0F8503091F868219BB2063341
:102E800003EBC20335F81350C5F30905002D00F01C
:102E9000BB802B46B1F86E21D1F87C1102F010F8FE
:102EA000B2E091F86B3191F868C1022B40F08B8051
:102EB000B0F8503017F4804AD1F880214FEACC0B9B
:102EC0009BB207F0400E40D09B440BF1020B35F84B
:102ED0001B50C5F30905954213D90023C1F8803171
:102EE00030F82C3023F4804323F070031B041B0CB8
:102EF00083F4005343F4004343F0800320F82C3064
:102F000004E0521BC1F88021002AE9D0BEF1000F75
:102F100012D0282303FB064393F8682130F82230AF
:102F200023F4E04323F070031B041B0C43F4004321
:102F300043F0C00320F82230002D65D0282101FB8A
:102F400006412B46B1F87021A6E75B44063335F8FD
:102F50001350C5F30905954212D9C1F880A130F884
:102F60002C3023F4804323F070031B041B0C83F4E8
:102F7000005343F4004343F0800320F82C3004E076
:102F8000521BC1F88021002AE9D0BEF1000F12D1F6
:102F9000282303FB064393F8682130F8223023F4FA
:102FA000E04323F070031B041B0C43F4004343F085
:102FB000C00320F822303DB3282101FB06412B46F7
:102FC000B1F8722168E730F82C3023F4E04323F0A5
:102FD00070031B041B0C43F4004343F0C00320F8B0
:102FE0002C3091F8683130F82320DB0012F4804F48
:102FF000B0F8502092B259D00232134435F8135031
:10300000C5F30905002D9CD1282171436318D3F81D
:1030100084212A44C3F88421D3F87C212A44C3F8AC
:103020007C21D3F880211AB1D3F878319D4246D261
:10303000282303FB0643204693F8681103F04EFF54
:1030400038067FF574AD2825206805FB064530F865
:1030500026309BB203EA090343F4004320F82630EC
:1030600095F82B2095F82830032A04D01AB1022AAB
:103070003DD1F9053BD42821B0F8502001FB06478B
:1030800092B2023202EBC30300EB4303B3F800E455
:10309000D7F840C0CEF3090EF44517D800233B649F
:1030A000204695F8281003F022FF40E5063213442D
:1030B00035F81350C5F30905002DA5D07FE701F5BC
:1030C000B4712068214401F06DFBB9E7ACEB0E034D
:1030D0003B64002BE4D006FB0111FA6B7B6C72445D
:1030E0007344FA637B64214401F05CFB1FE52822F2
:1030F00002FB0642B0F850104FEAC30A89B217F03B
:10310000400E126C00F5806C514407F4804700F0CB
:10311000E98002313CF811C02821CCF3090C944518
:1031200028BF002201FB064138BFA2EB0C020A6453
:10313000BFB2002A5CD195F82910002942D1B0F81D
:1031400050101B018AB200F204411144CA5A22F401
:10315000F8421204120CCA52CA5A92B242F4004205
:10316000CA5295F8292095F82830AABBB0F850200B
:1031700000F20C4092B210441A01835A23F4F8432F
:103180001B041B0C8352835A9BB243F400438352AB
:10319000204695F8281003F0AAFE002F00F0EA80E0
:1031A00095F82810226832F8213023F4E04323F008
:1031B00070031B041B0C43F4404343F0800322F8CC
:1031C0002130D7E00129CCD1B0F850101B018EB2CC
:1031D00000F204413144C3E7012AD9D1B0F85020AC
:1031E00000F20C4092B2104400221B01C252CFE701
:1031F0006FB130F8232022F4E04222F07002120472
:10320000120C42F4404242F0800220F8232028238E
:1032100003FB064393F84C20012A40F0AB805A6C24
:10322000D96B62449F6C5A649A6B61449742D9632C
:1032300027D3BF1A9F6495F8297093B2002F43D10A
:10324000B0F8507095F828C0BFB200F2044E4FEAB3
:103250000C1C774402BB3CF8072022F4F84212040D
:10326000120C2CF807203CF8072092B242F40042DE
:103270002CF80720282202FB0646328E01F082FA43
:1032800078E01FB9624683F84C70D4E7002283F8D7
:103290004C209A643A46CEE73E2A0CD84FEA520EAA
:1032A000D20748BF0EF1010E4FEA8E2E1FFA8EFE96
:1032B0002CF807E0DEE74FEA521ED20608BF0EF1F7
:1032C000FF3E48EA8E2EF1E7012FD3D1B0F850200F
:1032D00095F828701FFA82FC00F204423F01624414
:1032E000BB52C7E706313CF811C02821CCF3090CCA
:1032F000944588BF724601FB064198BFA2EB0C02C1
:103300000A64BFB2002A5FD195F82910002945D17F
:10331000B0F850101B018AB200F204411144CA5A9D
:1033200022F4F8421204120CCA52CA5A92B242F45F
:103330000042CA5295F8292095F82830002A37D142
:10334000B0F8502000F20C4092B210441A01835A97
:1033500023F4F8431B041B0C8352835A9BB243F49F
:1033600000438352204695F8281003F0C0FD002F3B
:103370003FF416AF95F82810226832F821309BB23E
:1033800023F4E04323F0400383F0300343F400438D
:1033900043F0800322F82130FFF7C9BB0129C9D1CE
:1033A000B0F850101B018EB200F204413144C0E766
:1033B000012AD7D1B0F8502000F20C4092B210444C
:1033C00000221B01C252CDE76FB930F8232022F44E
:1033D000E04222F070021204120C42F4404242F029
:1033E000800220F82320282303FB064393F84C2077
:1033F000012ABFD15A6CD96B62449F6C5A649A6B94
:1034000061449742D96325D3BF1A9F6495F8297008
:1034100093B2002F41D1B0F850C01FFA8CF700F2E0
:103420000C4CBC4495F828703F01F2B93CF80720D9
:1034300022F4F8421204120C2CF807203CF8072062
:1034400092B242F400422CF80720282202FB0646E2
:10345000728E13E71FB9624683F84C70D6E70022DC
:103460009A6483F84C203A46D0E73E2A0CD84FEABB
:10347000520ED20748BF0EF1010E4FEA8E2E1FFAF0
:103480008EFE2CF807E0E0E74FEA521ED20608BF96
:103490000EF1FF3E48EA8E2EF1E7012FD5D1B0F8AC
:1034A0005070BAB200F20C47174495F82820120168
:1034B000BB52CAE70F8FFFFF0080FFFF11F0800FA4
:1034C00070B5054601F007004FF028011CD001241B
:1034D00000FB011129444C700A614A780870CB70D6
:1034E00002B1C881022B04BF00230B7195F8A832EA
:1034F000012B13D00123286885F8A83200F090FE34
:10350000002085F8A80270BD002601FB00F404F538
:10351000B4712C44294484F86961DDE70220F2E7A4
:1035200011F0800F10B501F0070204464FF028019A
:1035300013D0012302FB011101444B700A7094F86F
:10354000A832012B13D00123206884F8A83200F0A0
:10355000BFFF002084F8A80210BD01FB02F303F5B1
:10356000B47101440344002083F86901E6E70220B6
:10357000F2E770B52824002601F007014C43051935
:1035800085F8681104F5B4710144C5E95F23C5F8F5
:10359000846185F86961006801F004F9304670BD06
:1035A000282301F0070103FB0101D1F884017047D2
:1035B00070B501F00705282101FB05040026C4E9C8
:1035C0000F23012205FB011184F84C200144A36460
:1035D000666484F8292084F82850006801F0E2F835
:1035E000304670BD38B5436801F007059D4204467A
:1035F00028D811F0800F4FF028031AD005FB0333B1
:10360000C11801234B7001230D708B7094F8A82210
:103610009A4219D0206884F8A83201F038F825B908
:10362000206804F52C7101F0ABF8002084F8A802A2
:1036300038BD00224B4303F5B4710344014483F8C1
:103640006921E0E70120F3E70220F1E738B543689C
:1036500001F00F029A42044626D811F0800F01F0C3
:1036600007024FF0280115D0012302FB011101448C
:103670004B7000250A708D7094F8A832012B15D07C
:103680000123206884F8A83201F021F8284684F844
:10369000A85238BD01FB02F303F5B47101440344A1
:1036A000002083F86901E4E70120F2E70220F0E757
:1036B00010B5282411F0800F1BBF01F0070101FB9A
:1036C000044104FB0100401808BF00F5B47099B232
:1036D0001AB90273C180002010BD012283600273F9
:1036E000F9E700002DE9F341054638B30368DB072D
:1036F00010D42B689F075ED42B68190700F19580C2
:103700002B685A0700F1BF80E869002840F02C813F
:10371000002029E08F4C636803F00C03042B07D0D2
:10372000636803F00C03082B0AD16368DE0307D536
:1037300023689C03DDD56B68002BDAD1012013E0F0
:103740006B68B3F5803F12D1236843F48033236064
:10375000FEF7E2F9064623689803CAD4FEF7DCF9BF
:10376000801B6428F7D9032002B0BDE8F0819BB923
:10377000236823F480332360236823F480232360A9
:10378000FEF7CAF9064623689903B2D5FEF7C4F9D5
:10379000801B6428F7D9E6E7B3F5A02F236803D18F
:1037A00043F480232360CFE723F48033236023682E
:1037B00023F48023CBE7674C636813F00C0F07D02A
:1037C000636803F00C03082B10D16368DA030DD48F
:1037D00023689B0702D52B69012BAFD123686A6947
:1037E00023F0F80343EAC203236085E72A695A4BB2
:1037F0006AB101221A60FEF78FF9064623689F0717
:10380000ECD4FEF789F9801B0228F7D9ABE71A60E0
:10381000FEF782F90646236898077FF56DAFFEF73D
:103820007BF9801B0228F6D99DE7AA69494E4B4BCC
:10383000DAB101221A60FEF76FF90446736A9B073A
:103840000DD54FF4FA52464B1B68B3FBF2F30193CC
:1038500000BF019B5A1E0192002BF9D150E7FEF7E1
:103860005BF9001B0228E9D97DE71A60FEF754F9DD
:103870000446736A9F077FF543AFFEF74DF9001BBF
:103880000228F6D96FE7334CE369D80024D4012726
:10389000E36943F08053E361E36903F080530093ED
:1038A000009B304E3368D90518D5EB68012B26D123
:1038B000236A43F001032362FEF72EF941F28838B0
:1038C0000646236A9B073FD5002F3FF41DAFE369EF
:1038D00023F08053E36117E70027E2E7336843F4FE
:1038E00080733360FEF718F980463368DA05DCD45C
:1038F000FEF712F9A0EB08006428F6D933E7ABB95C
:10390000236A41F2883823F001032362236A23F0FB
:1039100004032362FEF700F90646236A9807D3D50D
:10392000FEF7FAF8801B4045F7D91CE7052B236A00
:1039300003D143F004032362BAE723F001032362B7
:10394000236A23F00403B6E7FEF7E6F8801B404540
:10395000B7D908E70010024000004242800442420A
:1039600000000020007000402A4B5A681C4602F0FC
:103970000C02082A3DD00023274E022833602BD1A9
:10398000FEF7CAF80746236899011FD42B6AB3F5DE
:10399000803F05D16268A96822F400320A43626060
:1039A000696A62680B4322F4741213436360012353
:1039B0003360FEF7B1F8054623689A013FF5A8AEDB
:1039C000FEF7AAF8401B0228F6D9CCE6FEF7A4F8C9
:1039D000C01B0228D7D9C6E6FEF79EF80546236825
:1039E0009B017FF595AEFEF797F8401B0228F6D9AC
:1039F000B9E601283FF4B8AE5B682A6A03F4803167
:103A000091427FF49BAE6A6A03F4701393423FF4D1
:103A10007FAE93E6001002406000424230B5184B82
:103A200087B002AC03F110052246186859680833C4
:103A300003C2AB421446F7D140F201231149ADF85D
:103A400004304B6803F00C02082A17D1C3F38342F9
:103A500006A80244DB0312F8102C0CD54B680A4868
:103A6000C3F34043504306AA134413F8143CB0FB7D
:103A7000F3F007B030BD05485043FAE70248F8E7D5
:103A8000A6CC00080010024000127A0000093D0098
:103A90002DE9F0410D46044610B90120BDE8F08142
:103AA000444A136803F007038B4228D321688E072A
:103AB00030D4CA0743D43F4A136803F00703AB422C
:103AC00065D822683C4D12F0040F6CD1130706D55F
:103AD0006B68226923F4605343EAC2036B60FFF70B
:103AE0009DFF6B68354AC3F30313D35CD840344B56
:103AF0001860344B1868FDF7CDFF0020CEE713683F
:103B000023F007030B431360136803F007038B4292
:103B1000C3D1CBE7284B11F0040F1EBF5A6842F403
:103B2000E0625A60080742BF5A6842F460525A6025
:103B30005A68A06822F0F00202435A60B9E762684E
:103B40001D4E012A33681AD113F4003FA5D07368C3
:103B500041F2883823F0030313437360FDF7DCFF61
:103B600007467368626803F00C03B3EB820FA2D0C0
:103B7000FDF7D2FFC01B4045F3D903208EE7022A90
:103B800002D113F0007FE1E713F0020FDEE71368C4
:103B900023F007032B431360136803F00703AB42C2
:103BA0007FF47BAF8DE76B68E16823F4E0630B4340
:103BB0006B608BE700200240001002408ECC0008B2
:103BC0000000002008000020044B054A5B68C3F396
:103BD0000223D35C034A1068D840704700100240AB
:103BE0009ECC000800000020044B054A5B68C3F32C
:103BF000C223D35C034A1068D840704700100240CB
:103C00009ECC00080000002003682DE9F341D9078D
:103C1000054620D5354CE369DA0032D40127E36943
:103C200043F08053E361E36903F080530193019B08
:103C30002F4E3368DB0526D5236A13F4407336D143
:103C4000236A6A6823F44073134323621FB1E36954
:103C500023F08053E3612868830706D52349AB68C6
:103C60004A6822F440421A434A6010F010001BD008
:103C70001E4AE9685368002023F480030B43536015
:103C800012E00027D4E7336843F480733360FDF714
:103C900043FF80463368D805CED4FDF73DFFA0EB47
:103CA00008006428F6D9032002B0BDE8F0816A68F4
:103CB00002F440729A42C3D001200E4A236A106077
:103CC000002023F4407110602162D907B8D5FDF7B8
:103CD00023FF41F288380646236A9A07B0D4FDF7DD
:103CE0001BFF801B4045F7D9DDE700BF00100240F5
:103CF0000070004040044242024670B5344B86B02A
:103D000002AD03F110062C4618685968083303C445
:103D1000B3422546F7D140F20123022AADF8043020
:103D200049D0102A03D0012A26D0002038E0294BA0
:103D30005968186810F0807032D0C1F3834206A829
:103D4000024412F8100CCA0341BF5A6806A9C2F314
:103D50004042521844BF12F8141C1F4A5B684CBF03
:103D6000B2FBF1F21D4A5B0202FB00F018D4032300
:103D70004000B0FBF3F013E040F20231154A136A41
:103D80001940B1F5817F1FD003F44073B3F5007F74
:103D900008D149F64043506A10F0020018BF184697
:103DA00006B070BDB3F5407FBFD110684FF2244319
:103DB00010F40030F2E7FFF717FF064B5B68C3F320
:103DC000813301335B00D4E74FF40040E8E700BFE4
:103DD000A6CC00080010024000127A0000093D0045
:103DE00010B50446002851D0436A002B4AD14268DE
:103DF000B2F5827F00D0C3610023A36294F85130F2
:103E000003F0FF0223B9204684F85020FDF77AFD25
:103E10000223226884F851301368A06823F040031D
:103E20001360636800F4044003F482730343E068A2
:103E3000A16900F400600343206900F0020003431D
:103E4000606900F00100034301F400700343E0697E
:103E5000090C00F038000343206A01F0040100F06F
:103E600080000343A06A00F40050034313605160D4
:103E7000D369002023F40063D3610123606584F8D3
:103E8000513010BD0023C0E90433B5E70120F8E745
:103E90001A4A036890420AD0B0F1804F07D0A2F5C9
:103EA0009432904203D002F58062904215D14A6864
:103EB00023F070031343114A90420AD0B0F1804FAF
:103EC00007D0A2F59432904203D002F5806290426E
:103ED00003D1CA6823F4407313434A6923F0800373
:103EE000134303608B68C3620B688362034B984281
:103EF00004BF0B690363012343617047002C014039
:103F000010B5044630B390F83D3003F0FF021BB902
:103F100080F83C20FDF732FD0223206884F83D3014
:103F2000211DFFF7B5FF0123002084F8463084F8F7
:103F30003E3084F83F3084F8403084F8413084F8D3
:103F4000423084F8433084F8443084F8453084F8B3
:103F50003D3010BD0120FCE710B584680A4324F40D
:103F60007F4442EA03222243826010BD70B590F87C
:103F70003C300446012B4FF0020027D0012384F887
:103F80003D00206884F83C30836823F47F4323F0AD
:103F9000770383600B68602B4DD032D8402B62D002
:103FA00015D8202B03D009D833F0100208D182682D
:103FB00022F07002134343F0070320E0302BF6D0C9
:103FC0000123002084F83D3084F83C0070BD502B64
:103FD000F6D14A68CE68016A056A21F00A0125F027
:103FE0000105056283690A4323F0F00343EA0613DF
:103FF00083610262836823F0700343F05703836098
:10400000DEE7702B0CD0B3F5005FD9D1CB68D1E9D6
:104010000121FFF7A1FF2268936843F4804308E081
:10402000CB68D1E90121FFF797FF2268936843F03D
:1040300077039360C4E74D68CE68016A21F01001F0
:1040400001628269036A22F4704223F0A00343EA0A
:10405000051342EA063282610362836823F070032B
:1040600043F06703CBE74A68CE68016A056A21F02E
:104070000A0125F00105056283690A4323F0F00374
:1040800043EA061383610262836823F0700343F0FE
:104090004703B4E730B590F83C300246012B4FF0AF
:1040A000020022D0136882F83D005C680D6824F09D
:1040B00070042C4398685C600C4CA3420AD0B3F1A6
:1040C000804F07D0A4F59434A34203D004F5806454
:1040D000A34204D1496820F0800001439960012384
:1040E000002082F83D3082F83C0030BD002C0140B9
:1040F00010B504460368C1681A6922F440520A43A5
:104100001A6182680069D9680243606921F4B0517C
:1041100021F00C0102430A43DA605A69A16922F4D2
:1041200040720A435A610E4A934215D1FFF75CFD73
:1041300019234343626820689200B3FBF2F36422C0
:10414000B3FBF2F102FB11331B013233B3FBF2F389
:1041500003EB0113836010BDFFF736FDE8E700BFF6
:104160000038014010B5044640B390F83D3003F0EC
:10417000FF021BB980F83C20FDF714FC24232268C1
:1041800084F83D30D368204623F40053D360FFF712
:10419000AFFF236800201A6922F490421A615A691D
:1041A00022F02A025A61DA6842F40052DA602023CF
:1041B000206484F83D3084F83E3010BD0120FCE7D7
:1041C00084B001A880E80E0004B0002070470346C8
:1041D0004FF43F420020A3F84400A3F8402070476A
:1041E000B0F8403023F47C535B045B0CA0F8403003
:1041F000002070470020704784B010B5044603A823
:1042000080E80E0000200123A4F84030A4F840000C
:10421000A4F84400A4F85000BDE8104004B0704772
:10422000F0B50D78034630F82520C87822F4EC422A
:1042300022F070021204120C03284FD8DFE800F0BD
:10424000024B494742F4007248F28004224323F8AB
:1042500025200E789B4D33F8262092B22A40324317
:10426000224323F826200C7B0A78002C40F089801A
:10427000CC884E786408640003EB021286B3B3F86E
:104280005060B6B23244A2F800440C7833F82420CF
:10429000520609D533F8242092B22A4042F4004253
:1042A00042F0C00223F82420CA780C78012A33F89F
:1042B0002420854992B202EA010218BF82F020024E
:1042C00042F4004242F0800223F82420F0BD42F480
:1042D000C0620020B8E742F48062FAE70120B3E749
:1042E000B3F850500E69ADB22A44A2F808440A78D7
:1042F000B3F8504003EB0212A4B202F20C427EBBB0
:10430000155B25F4F8452D042D0C1553155B6FEA4C
:1043100045456FEA5545ADB215530C7833F8242066
:1043200055040DD533F8242022F4E04222F0700227
:104330001204120C42F4404242F0800223F824207E
:10434000097833F8212022F4804222F0700212040E
:10435000120C82F4405242F4004242F0800271E0BA
:104360003E2E05D87508F70748BF0135AD02D2E7E4
:104370007709564DF60608BF07F1FF3745EA87254E
:10438000C9E733F82240A4B22C4044F4014444F07D
:10439000800423F822400A780C89B3F8506003EBBC
:1043A00002126408B6B202F58062640094530A787F
:1043B0004C89B3F8506003EB0212640802F5816285
:1043C0006400B6B294534A780C78002A3DD133F891
:1043D0002420520409D533F8242092B22A4042F412
:1043E000404242F0800223F824200C7833F8242045
:1043F00057060DD533F8242022F4E04222F0700253
:104400001204120C42F4004242F0C00223F82420AD
:1044100048F280040D7833F8252022F4804222F0FF
:1044200070021204120C82F44052224323F8252019
:10443000097833F8212022F4E04222F040021204ED
:10444000120C224323F8212040E733F8242056049D
:1044500009D533F8242092B22A4042F4404242F077
:10446000800223F824200C7833F8242052060DD53E
:1044700033F8242022F4E04222F070021204120CDD
:1044800042F4004242F0C00223F82420CA780C789B
:10449000012A33F824200C4D92B202EA050218BF1B
:1044A00082F0200242F4004242F0800223F82420ED
:1044B000097833F8212022F4804222F0700212049D
:1044C000120C48E78F8FFFFFBF8FFFFF0080FFFFB9
:1044D00010B50C7B4B780A78002C3DD113B330F823
:1044E00022305C060DD530F8223023F4E04323F06F
:1044F00070031B041B0C43F4004343F0C00320F87B
:1045000022300A7830F8223023F4E04323F04003CD
:104510001B041B0C43F4004343F0800320F82230BB
:10452000002010BD30F822305B040DD530F8223069
:1045300023F4E04323F070031B041B0C43F44043BB
:1045400043F0800320F822300A7830F8223023F438
:10455000804323F07003DBE7002B4ED130F822308C
:104560005C040DD530F8223023F4E04323F07003CF
:104570001B041B0C43F4404343F0800320F822301B
:104580000A7830F822305B060DD530F8223023F45B
:10459000E04323F070031B041B0C43F4004343F07F
:1045A000C00320F822300A7830F8223023F4E043A8
:1045B00023F070031B041B0C43F4004343F0C003BF
:1045C00020F8223048F280020C7830F8243023F4AE
:1045D000804323F070031B041B0C134320F824308A
:1045E000097830F8213023F4E04323F040031B0422
:1045F0001B0C134320F8213092E730F822305C0482
:104600000DD530F8223023F4E04323F070031B046F
:104610001B0C43F4404343F0800320F822300A7817
:1046200030F822305B060DD530F8223023F4E04319
:1046300023F070031B041B0C43F4004343F0C0033E
:1046400020F822300A7830F8223023F4E04323F0B7
:1046500070031B041B0C43F4404343F0800320F819
:10466000223048F280020C7830F8243023F4E04302
:1046700023F040031B041B0C134320F8243009785B
:1046800030F8213023F4804323F07003AFE74B78F8
:104690000A788BB130F8223023F4E04323F0400352
:1046A0001B041B0C83F0100343F4004343F080030E
:1046B00020F822300020704730F8223023F4804365
:1046C00023F070031B041B0C83F48053ECE70B7B7B
:1046D00043BB4B780A783BB330F822305B060DD5EC
:1046E00030F8223023F4E04323F070031B041B0C4A
:1046F00043F4004343F0C00320F82230CB78012B71
:1047000010D00A7830F8223023F4E04323F040033D
:104710001B041B0C83F0200343F4004343F080038D
:1047200020F822300020704730F822305B040DD58D
:1047300030F8223023F4E04323F070031B041B0CF9
:1047400043F4404343F0800320F822300A7830F8E5
:10475000223023F4804323F070031B041B0C83F4EA
:104760004053D9E711B98023A0F84C30002070479E
:104770000020704700207047B0F8440080B27047B6
:104780000020704700EB4202013302F580625B08B3
:1047900002EB83039A4200D1704731F8020B22F8F2
:1047A000040BF7E7F8B50C46497805460129227B4A
:1047B00040F05582D4F810C0A6696169664528BFEB
:1047C000664602BBB6B2E2883346FFF7DBFFB5F8B8
:1047D0005020217890B205F20442090102448E5221
:1047E000227835F8223023F4E04323F040031B0401
:1047F0001B0C83F03003002043F4004343F080039C
:1048000025F82230F8BDE2782778022A236A30F8AA
:10481000272040F01E819C4580F0018122F4E04277
:1048200022F070021204120C42F4014242F08002A3
:1048300020F8272022789B1B30F82200236210F0FA
:10484000400FB3B2607875D0002853D1B5F850004E
:1048500005F20C4780B238441201002E37D1875A36
:1048600027F4F8473F043F0C8752875A6FEA4747BF
:104870006FEA5747BFB2875228466289FFF782FF27
:10488000226A236961699A428ABF931B00233246D8
:10489000607831442362616193B2002840F059810D
:1048A000B5F85000267880B205F204473601384446
:1048B0005ABB325A22F4F8421204120C3252325AC3
:1048C0006FEA42426FEA524292B2325226E03E2EE4
:1048D00006D8770816F0010F18BF0137BF02C9E7E5
:1048E0004FEA561CF706A14F08BF0CF1FF3C47EA00
:1048F0008C27BFE70128BFD1B5F85000120187B25D
:1049000005F20C4038448352B6E73E2A09D85708CE
:10491000D20748BF0137BF02BFB2375222892846AB
:1049200094E05709D206914A08BF07F1FF3742EADF
:104930008722C9E7002853D1B5F8500005F2044793
:1049400080B238441201002E37D1875A27F4F84735
:104950003F043F0C8752875A6FEA47476FEA574731
:10496000BFB2875228462289FFF70CFF226A2369CB
:1049700061699A428ABF931B0023324660783144B2
:104980002362616193B2002840F05C81B5F8500069
:10499000267880B205F20C47360138445ABB325AA9
:1049A00022F4F8421204120C3252325A6FEA424296
:1049B0006FEA524292B2325226E03E2E06D8770873
:1049C00016F0010F18BF0137BF02C9E74FEA561CA6
:1049D000F706664F08BF0CF1FF3C47EA8C27BFE79C
:1049E0000128BFD1B5F85000120187B205F204408A
:1049F00038448352B6E73E2A08D85708D20748BF42
:104A00000137BF02BFB23752628988E75709D20621
:104A1000564A08BF07F1FF3742EA8722CAE722F465
:104A2000E24222F070021204120C42F4004242F000
:104A3000800220F82720B0F85020267897B200F2A4
:104A400004423A4436019BB2B3522289FFF79AFEE0
:104A5000C6E622F4E04222F070021204120C42F484
:104A6000014242F0800220F8272022789B1B30F878
:104A70002200236210F0400FB3B2607878D0002893
:104A800051D1B5F8500005F20C4780B238441201FC
:104A9000002E35D1875A27F4F8473F043F0C875240
:104AA000875A6FEA47476FEA5747BFB28752628912
:104AB0002846FFF767FE226A236961699A428ABF26
:104AC000931B00233246314461612362002A3FF484
:104AD00087AE607893B200283BD1B5F85060277854
:104AE000B0B23E2A05F204464FEA0717064425D81D
:104AF0005008D20748BF0130800280B2B8530DE79A
:104B00003E2E06D8770816F0010F18BF0137BF02F6
:104B1000CBE74FEA561CF706144F08BF0CF1FF3CD9
:104B200047EA8C27C1E70128C1D1B5F8500012012E
:104B300087B205F20C4038448352B8E75009D206D8
:104B40000A4A08BF00F1FF3042EA802292B2BA530B
:104B5000E4E601287FF4E2AEB5F85020207896B262
:104B600005F20442000132448352D7E60080FFFF81
:104B7000002851D1B5F8500005F2044780B23844FE
:104B80001201002E35D1875A27F4F8473F043F0C15
:104B90008752875A6FEA47476FEA5747BFB2875233
:104BA00022892846FFF7EEFD226A236961699A424D
:104BB0008ABF931B00233246314461612362002A7D
:104BC0003FF40EAE607893B200283BD1B5F8506048
:104BD0002778B0B23E2A05F20C464FEA0717064482
:104BE00025D85008D20748BF0130800280B2B853A0
:104BF0000AE73E2E06D8770816F0010F18BF0137D6
:104C0000BF02CBE74FEA561CF706AC4F08BF0CF1CA
:104C1000FF3C47EA8C27C1E70128C1D1B5F8500015
:104C2000120187B205F2044038448352B8E75009B4
:104C3000D206A24A08BF00F1FF3042EA802292B2B7
:104C4000BA53E1E601287FF4DFAEB5F850202078B2
:104C500096B205F20C42000132448352D4E6002A97
:104C60003BD1A36921698B4284BF5A1A0B46B0F825
:104C700050102078A2618AB205F20C410001114463
:104C80006BB9435A23F4F8431B041B0C4352435A99
:104C90006FEA43436FEA53439BB2435208E03E2B13
:104CA00012D85A08DF0748BF0132920292B242522C
:104CB000227835F8223023F4804323F070031B045C
:104CC0001B0C83F4405396E55A09DE067B4B08BF64
:104CD00002F1FF3243EA8223DEE7E378022B7ED142
:104CE000B9B9B0F85020217893B200F2044220699B
:104CF00009011A44002844D18B5A23F4F8431B04B9
:104D00001B0C8B528B5A6FEA43436FEA53439BB29F
:104D10008B5262782378002A55D1B5F8501020695B
:104D20008AB205F20C4111441B0100283AD1CA5A3B
:104D300022F4F8421204120CCA52CA5A6FEA4242D2
:104D40006FEA524292B2CA52E369002BB0D044F2E9
:104D50004003227835F8221003EA01008B4301D08A
:104D60000028A5D135F8223023F4E04323F0700366
:104D70001B041B0C43F4004343F0C00325F822300E
:104D800096E73E2805D84308C00748BF01339B0279
:104D9000BDE74609494BC70608BF06F1FF3643EA9F
:104DA0008623B4E73E2805D84208C00748BF013231
:104DB0009202C7E74609414AC70608BF06F1FF3617
:104DC00042EA8622BEE7012ABED1B5F850201B0177
:104DD00091B205F20C420A44218AD152B4E7012B68
:104DE0006AD1A3692269934294BF0020981AA061F6
:104DF00088BF1346A9B9B5F8501020788AB205F2D9
:104E000004410001114433BB425A22F4F842120417
:104E1000120C4252425A6FEA42426FEA524292B236
:104E2000425261782278002939D1B5F85000120138
:104E300081B205F20C400844F3B9835A23F4F843D5
:104E40001B041B0C8352835A6FEA43436FEA53439C
:104E50009BB283522CE73E2B05D85A08DE0748BF89
:104E600001329202DBE75E09144ADF0608BF06F151
:104E7000FF3642EA8622D2E73E2B07D85908DE07E2
:104E800048BF0131890289B2815211E75909DB0615
:104E90000A4B08BF01F1FF3143EA8123D8E701291A
:104EA0007FF406AFB5F85010120188B205F20C413C
:104EB00001449BB28B52FBE60120A3E40080FFFF7C
:104EC00000EB4202F0B502F580625D080C46174621
:104ED0002E46023436B9DB0744BF32F8253001F8DC
:104EE0001530F0BD37F8040B013E80B204F8020C17
:104EF000000A04F8010CECE708B580B1D0F8B43230
:104F000013B10023C0F8B43209B1C0F8B0120123C4
:104F1000027080F89C3202F01DF8002008BD0220CB
:104F2000FCE719B1C0F8B4120020704702207047A6
:104F300008B502F051F8002008BD08B5D0F8B43229
:104F40000BB9022008BD1B6898470028FAD0F8E783
:104F500008B5D0F8B4325B689847002008BD38B572
:104F600000F52A750446284600F0E8FA012394F873
:104F7000A812C4F89432B4F8AE32C4F8983201F0F2
:104F80001F03012B08D0022B0BD07BB929462046EA
:104F900000F0FCF8002038BD2946204600F020FA39
:104FA000F8E72946204600F03FFAF3E7204601F0F3
:104FB000800102F03DF8EDE770B5044616460D4657
:104FC00039BBD0F89432032B1CD1D0E9581291424E
:104FD0000BD9891A8A42C0F860118CBF8AB292B28A
:104FE000314600F0F0FA284670BDD0F8B4321B69A3
:104FF00023B190F89C22032A00D19847204600F064
:10500000EAFAF0E7052BEED1C4F8941202F010F89A
:10501000E9E7D0F8B4329B6933B190F89C22032AB7
:1050200002D198470025DEE70225DCE7F8B5044603
:1050300017460D46002947D1D0F89432022B3CD1B7
:10504000D0E908639E4214D9F31A394603629AB232
:1050500000F0B1FA2B462A462946204602F032F8E3
:1050600094F8A032012B02D1002384F8A032284604
:10507000F8BDC269B2FBF3F603FB16265EB9934294
:1050800009D8D0F898329A4205D20A4600F093FA2D
:10509000C4F89852DEE7D4F8B432DB682BB194F848
:1050A0009C22032A01D1204698478021204601F006
:1050B000BFFF204600F09AFAD2E733F00403CFD1C5
:1050C000802101F0B5FFCBE7D0F8B4325B6933B192
:1050D00090F89C22032A02D198470025C7E70225B1
:1050E000C5E7002270B5044601254026114640233D
:1050F00001F080FF3346802100222046C4F8585139
:10510000C4F8646101F076FF0021D4F8B832A561DB
:10511000666284F89C52C4F894126160C4F8A412C8
:1051200023B1D4F8B43220465B689847002070BDA4
:1051300001740020704790F89C3280F89D3204235F
:1051400080F89C320020704790F89C32042B04BFFA
:1051500090F89D3280F89C320020704708B590F896
:105160009C22032A04D1D0F8B432DB6903B19847FA
:10517000002008BD10B50446802101F059FF2046EB
:10518000BDE81040002101F053BF000037B50B7897
:10519000044603F06003202B0D4612D0402B10D0A4
:1051A000002B51D14B78092B4ED8DFE813F0EE00DD
:1051B0000A014D0003014D00870013004D00D60089
:1051C000A300D4F8B432294620469B6898470020B3
:1051D00003B030BD0023ADF806304B881A0A013AFF
:1051E000062A31D8DFE802F0041623303048520096
:1051F000D0F8B0321B68207C0DF106019847BDF84D
:105200000620002A56D0EB88002B4AD1204600F019
:10521000E2F9DCE7027CD0F8B43232B99B6A0DF1D6
:105220000600984702234370E9E7DB6AF7E7DBB241
:10523000052B09D8DFE803F0030C1014181CD0F874
:10524000B0325B68002BD6D12046FFF793FFBEE754
:10525000D0F8B0329B68F5E7D0F8B032DB68F1E700
:10526000D0F8B0321B69EDE7D0F8B0325B69E9E7FE
:10527000D0F8B0329B69E5E7037C002BE4D1D0F88D
:10528000B4320DF106005B6B9847B8E7037C002B46
:10529000DAD1D0F8B4320DF106001B6B9847072322
:1052A000C1E79A4228BF1A4601462046ADF80620BB
:1052B00000F074F9EB88002B89D1A7E78B88002BCD
:1052C000C2D1CB88002BBFD14D887F2DBCD890F8A0
:1052D0009C32032BB8D0E9B280F89E1201F0D6FEC2
:1052E000204600F078F91DB1022384F89C326EE765
:1052F0000123FAE78978394D01292970A4D890F85B
:105300009C32022B08D0032B15D0FFF733FF204629
:105310002978FFF71DFE5AE700293FF477AF0121F6
:105320000323416080F89C322046FFF706FE0228E6
:105330007FF46CAF88E731B90223416080F89C327A
:10534000FFF706FE62E7416801293FF45FAFC9B28B
:10535000FFF7FEFD29786160E6E7CA88012A7FF43D
:1053600073AF90F89C32022B0AD8002B3FF46CAF3D
:105370000146002341F8083F204600F00FF926E7D8
:10538000032B7FF461AF011DF6E790F89C32013BDF
:10539000022B3FF659AFCB88022B7FF455AF012388
:1053A000C360D0F8A4320BB10323C360022204F11E
:1053B0000C01E1E74B88012B7FF409AFC4F8A4325C
:1053C00024E790F89C32013B022B3FF63DAF4B881F
:1053D000012B7FF4FCAE0023F0E700BF640B00203C
:1053E00038B50B78044603F06002402A0D4601D020
:1053F0005B0615D494F89C32013B022B10D82B7914
:10540000012B0DD8D4F8B43229469B682046984722
:10541000EB881BB910B9204600F0DDF8002038BD3C
:105420002046FFF7A7FEF9E738B50A78044602F0F0
:105430006002202A0B4627D0402A25D092BB5A78FA
:105440008D88012A09793DD0032A25D052BB90F8D6
:105450009C32022B4DD0032B24D1142201F00F03D8
:1054600015F0800F02FB030354D09B69D3B11423C2
:1054700001F07F0505FB0333C51811F07F0355D1FB
:105480002B600222294641E0D4F8B4221946204676
:1054900092689047002038BD90F89C22022A1FD0C5
:1054A000032A03D02046FFF765FEF3E75A882AB99E
:1054B0004A0603D0DB880BB901F0BAFD204600F0A4
:1054C0008AF8E7E790F89C22022A09D0032AE9D15A
:1054D0005B88002BDED14D06F0D001F0B7FDEDE783
:1054E0004B06DFD001F0A4FD8021204601F0A0FD95
:1054F000D0E74A06D6D12B064FF000034FF0020248
:105500004CBF00F1140100F5AA710B60204600F0B9
:1055100045F8BFE7D3F85831002BC3D0142301F06E
:105520007F0503FB050505F5AA75A6E7204601F0F2
:105530009BFD08B10123A3E72860A2E70B78037065
:105540004B784370CA788B7803EB022343804A7907
:105550000B7903EB02238380CA798B7903EB022357
:10556000C380704730B588B1002501382B4601351E
:10557000445D002CFAD1DBB201335B0013800B7069
:1055800003234B70022310F8015F05B930BD5A1C8C
:10559000CD54D2B20233DBB28C54F4E7134602226C
:1055A00010B5C0E90733C0F894220A46002101F083
:1055B0007BFD002010BD08B513460A46002101F00E
:1055C00073FD002008BD08B513460A46002101F00E
:1055D00079FD002008BD08B50423C0F894320023EB
:1055E0001A46194601F060FD002008BD08B50523E4
:1055F000C0F8943200231A46194601F063FD0020DA
:1056000008BD000080B400AF0F4B5B6A0F4A136007
:1056100000BF0D4B5A6A0D4B1B689A42F9D00A4BDA
:105620005B6A0A4A136000BF074B5A6A074B1B6844
:105630009A42F9D0064B1B680133054A136000BF3C
:10564000BD4680BC704700BF00080040680B0020CA
:1056500088110020002313B504460193019BA34247
:1056600001DB02B010BDFFF7CDFF019B01330193B9
:10567000F4E70000074B10B503EB40000023064998
:1056800031F8022B5C0101339208062B0253F7D14B
:1056900010BD00BFD01300209014002030B50A4B7D
:1056A00003EB401003460F2100221C8833F8025FF1
:1056B000AC423EBF23F8025C1C8001320139F4D1B8
:1056C000002AEFD130BD00BFD01300202DE9734F69
:1056D00000264FF078594FF0814B284CDFF8A4A0FA
:1056E000A269606811460192FBF722FA0146FBF7B6
:1056F00029FB2349FBF7E2FC019A10B164236260A5
:10570000E360D4F80480E56841461046FBF710FAE0
:105710004DBBA168FBF716FB4146FBF70BFAD4F82B
:10572000108005464146FBF703FA5146FBF70AFB9A
:105730004146FBF7FFF90346184659460193FBF72C
:10574000A9FC019B00B1002318466560FBF7C0FC73
:10575000FBF7A4FA0136062E206104F16004BFD1E4
:1057600002B0BDE8708F4946FBF7ECFA4146FBF703
:10577000E1F9013DE56003460546DDE790110020B3
:105780000000C8410AD7A33B214A2DE9734F146892
:105790000134634203F00F0304F00F0058BF584276
:1057A0001060FFF767FF14F00F042BD14FF0000AD1
:1057B0004FF06C59174DDFF860802B6920466B6104
:1057C0005646FFF76BFF4FF0000B434633F8020BD2
:1057D0000BF1010BCDE90033FBF760FA01463046CF
:1057E000FBF7A8F9BBF1080F0646009BEED149462E
:1057F000FBF7A8FA0134062CA86108F1200805F18E
:105800006005DAD102B0BDE8704FFFF75FBF00BF9F
:10581000700B002090110020D81300202DE9784152
:105820006023164D804603FB01531E690C4630462B
:10583000D96AFBF77DF90146FBF784FA4FF07E51F8
:10584000FBF732FCB8B11821012201FB048404F1FA
:10585000140345F823204FF06A513046FBF772FAE3
:1058600004F10C0345F8230004F1100305EB840454
:1058700045F82300E661BDE8788100BF9011002063
:1058800038B5FFF781FF0124064D21460020FFF7C0
:10589000C5FF01342B6F062CC5F88C3005F160056F
:1058A000F3D138BD901100200022064B1A65C3F8D1
:1058B000B020C3F81021C3F87021C3F8D021C3F879
:1058C000302270479011002000224FF4617110B512
:1058D000074B08480132062A9860D96003F160033B
:1058E000F8D14FF4FA64FFF7CBFF013CFBD110BDB8
:1058F000901100200AD7233C43689A6803681A4035
:10590000294B1A604369002B04DB013B43610723E9
:10591000836070470369591C0BD13AB9234B02616C
:105920001B68836301238360836170470023836066
:1059300070470133812B036132DDAAB9B3F5967F3D
:105940000FDB06D00522826040F6B832934205DCB8
:10595000704704238360012303627047012383623D
:105960007047032383607047104AB3F5967F12682F
:1059700002644FF0820242614FF001020ADB06210D
:10598000816040F6B8318B42426307DC4FF0FF3351
:1059900003617047022302638360F7E7C262F5E7A1
:1059A00008238360704700BF6C0B00208811002023
:1059B0004B1E114410F8012B03F8012F8B42F9D133
:1059C0007047FFF7F5BF0022431E084403F8012F7C
:1059D0008342FBD17047000038B50D46144601469E
:1059E000064800F0C9F92946054800F0C5F92146E6
:1059F000BDE83840034800F0BFB900BFB7CC00088D
:105A0000C5CC0008DBCC000810B50C4601460448A4
:105A100000F0B2F92146BDE81040024800F0ACB9F0
:105A2000ECCC0008DBCC000810B540F6B8341548C3
:105A300000F07CF900F09CF8134B144ADA65FFF78C
:105A400033FF0120FFF706FEFFF71AFF013CF6D1F6
:105A50004FF4C0710C4800F0F7F80D4800F066F9FB
:105A60004FF4C0710848FFF7AEFF07484FF4C0710C
:105A700000F01EF900F07CF8BDE81040054800F089
:105A800055B900BFFACC00089011002078563412A6
:105A900006CD00081CCD0008304A2DE9F041D3693D
:105AA0002F4C43F00403D361A2F5023213682D4D4D
:105AB00043F00103136000F045F9FFF705FFFFF71E
:105AC000B3FF01F013F804F14406FFF7EDFE0120E7
:105AD000FFF7C0FD2248FFF70FFF3046FFF70CFF2E
